:020000040800F2
:100000002016002005010008753000087730000830
:100010007B3000087F3000088330000800000000BB
:100020000000000000000000000000008730000811
:1000300089300008000000008B3000088D30000877
:100040001F0100081F0100081F0100081F01000810
:100050001F0100081F0100081F0100081F01000800
:100060001F0100081F0100081F0100081F010008F0
:100070001F0100081F0100081F0100081F010008E0
:100080001F0100081F0100081F0100081F010008D0
:100090001F0100081F0100081F0100081F010008C0
:1000A0001F0100081F0100081F0100081F010008B0
:1000B0001F010008B13100088F3000081F0100083F
:1000C0001F0100081F0100081F0100081F01000890
:1000D0001F010008614800080D460008114700088C
:1000E0001F0100081F0100081F010008DFF810D0E1
:1000F00007F030F90048004723200008AFF30080E4
:10010000201600200648804706480047FEE7FEE725
:10011000FEE7FEE7FEE7FEE7FEE7FEE7FEE7FEE7B7
:1001200007020008ED0000080CB5002001900090C7
:100130006C48006840F480306A49086000BF694834
:10014000006800F4003000900198401C0190009875
:1001500018B90198B0F5A06FF1D16248006800F4B9
:10016000003010B10120009001E0002000900098C4
:10017000012843D15C48006840F010005A490860EB
:100180000846006820F0030008600846006840F058
:100190000200086053484068524948600846406879
:1001A00048600846406840F48060486008464068FF
:1001B00020F47C1048600846406840F4E81048602D
:1001C0000846006840F08070086000BF454800683D
:1001D00000F000700028F9D04248406820F0030089
:1001E000404948600846406840F00200486000BF4F
:1001F0003C48406800F00C000828F9D10CBD10B54F
:10020000FFF792FF10BD10B53648006840F00100BE
:10021000344908600846406834490840314948601C
:1002200008460068324908402E49086008460068C0
:1002300020F4802008600846406820F4FE004860F2
:100240004FF41F008860FFF7DAFF4FF00060294984
:10025000086010BD10B5002100200022214B5B6812
:1002600003F00C0121B1042906D0082928D107E0A8
:10027000214B224C236027E01F4B204C236023E0BE
:10028000184B5B6803F47010164B5B6803F4803204
:10029000022303EB904022B9194B4343174C2360D0
:1002A0000DE0104B5B6803F4003323B1144B434360
:1002B000124C236003E0104B4343104C236003E0D7
:1002C0000D4B0E4C236000BF00BF064B5B68C3F3B1
:1002D00003130C4CE15C094B1B68CB40074C2360BB
:1002E00010BD000000100240002002400000FFF896
:1002F000FFFFF6FE08ED00E000127A00000000208B
:1003000000093D000400002031490143314A1160D9
:10031000704770B5002100230F22C47804B32D4C20
:10032000246804F4E064C4F5E064210AC1F1040324
:10033000CA40447804FA03F1847814402143090147
:10034000254C0678A155047804F01F050124AC4023
:1003500005786D11AD0005F1E025C5F8004109E013
:10036000047804F01F050124AC401C4D067876117A
:1003700045F8264070BD1A4A0A400243154B1B1F20
:100380001A60704739B1134A121D12680243114BAB
:100390001B1D1A6006E00F4A121D126882430D4BA6
:1003A0001B1D1A607047042808D14FF0E02109692D
:1003B00041F004014FF0E022116107E04FF0E0212D
:1003C000096921F004014FF0E0221161704700003B
:1003D0000000FA050CED00E000E400E080E100E040
:1003E00080FFFF1F10B50446CC48844208D101218C
:1003F000042000F02DFB0021042000F029FB46E042
:10040000C748844208D10121082000F021FB0021C7
:10041000082000F01DFB3AE0C248844208D10121C7
:10042000102000F015FB0021102000F011FB2EE041
:10043000BD48844208D10121202000F009FB0021A1
:10044000202000F005FB22E0B848844208D10121B9
:10045000402000F0FDFA0021402000F0F9FA16E0FB
:10046000B348844208D10121802000F0F1FA002134
:10047000802000F0EDFA0AE0AE48844207D1012165
:10048000801500F0E5FA0021A01500F0E1FA10BD9A
:1004900010B50121084600F0DBFA0021012000F030
:1004A000D7FA10BD2DE9F0410246002500260020B4
:1004B00000230024002791F803C00CF00F0591F8E9
:1004C00003C00CF0100CBCF1000F03D091F802C077
:1004D0004CEA050591F800C0BCF1000F31D014685A
:1004E00000202BE04FF0010C0CFA00F3B1F800C033
:1004F0000CEA03069E4220D183004FF00F0C0CFA49
:1005000003F7BC4305FA03FC4CEA040491F803C06A
:10051000BCF1280F06D14FF0010C0CFA00FCC2F818
:1005200014C00AE091F803C0BCF1480F05D14FF0A8
:10053000010C0CFA00FCC2F810C0401C0828D1D3F2
:100540001460B1F800C0BCF1FF0F34DD5468002026
:100550002EE000F1080C4FF0010808FA0CF3B1F896
:1005600000C00CEA03069E4221D183004FF00F0C1D
:100570000CFA03F7BC4305FA03FC4CEA040491F8B7
:1005800003C0BCF1280F05D100F1080C08FA0CF8E3
:10059000C2F8148091F803C0BCF1480F07D100F1F4
:1005A000080C4FF0010808FA0CF8C2F81080401C43
:1005B0000828CED35460BDE8F0814FF6FF7101806A
:1005C000022181700421C1707047024600209368A7
:1005D0000B400BB1012000E0002070470146886805
:1005E00080B2704702460020D3680B400BB1012057
:1005F00000E0002070470146C86880B27047016182
:100600007047416170470AB1016100E04161704784
:10061000C16070474FF480320A4382618161826118
:1006200082698269704702460020434B18684FF682
:100630008073184040EA021008433F4B186070472F
:100640003E49C8617047F0B50A46002300240021E6
:10065000002500F00046B6F1004F02D1364EF16998
:1006600001E0354E7168C0F3034583B200F44016D3
:10067000B6F5401F08D121F070612F4E766826F044
:1006800070662D4F7E6012E000F48016B6F5801F74
:1006900006D1032606FA05F4A14341F0706106E095
:1006A000460D360103FA06F6B14341F0706122B1FE
:1006B000460D360103FA06F6314300F00046B6F166
:1006C000004F02D11C4EF16101E01B4E7160F0BD84
:1006D00030B500228B071C0F0F2303FA04F2164BD0
:1006E00008338C1053F824309343134C08348D1086
:1006F00044F8253023468C1053F824308C07240FFF
:1007000000FA04F423430C4C08348D1044F82530CF
:1007100030BD0A49DC310860704700000008014024
:10072000000C01400010014000140140001801407D
:10073000001C014000200140000001400000204258
:10074000DF48006840F00100DD4908600846406865
:10075000DC490840DA49486008460068DA49084040
:10076000D74908600846006820F4802008600846E1
:10077000406820F4FE0048604FF41F008860704716
:10078000CF49096821F48031CD4A116011460968CA
:1007900021F480211160B0F5803F03D0B0F5802FA7
:1007A0000ED106E0C649096841F48031C44A11609F
:1007B00007E0C349096841F4A021C14A116000E083
:1007C00000BF00BF704710B5014600220023002083
:1007D0004A11012A02D1BA4C236806E0022A02D14A
:1007E000B74C236A01E0B64C636A01F01F02012492
:1007F00094401C400CB1012000E0002010BD38B531
:10080000002000900024002500BF3120FFF7DBFF0F
:1008100005460098401C00900098B0F5A06F01D0EC
:10082000002DF2D03120FFF7CEFF08B1012400E007
:100830000024204638BD01460020A14A106820F05F
:10084000F80040EAC10010607047A0490860704796
:10085000024600209A4B586820F47C1042EA0103BB
:100860001843974B5860704798490866704701468F
:100870000020934A506820F00300084350607047FE
:100880008F48406800F00C007047014600208C4AF9
:10089000506820F0F0000843506070470146002087
:1008A000874A506820F4E060084350607047014672
:1008B0000020834A506820F4605040EAC100506034
:1008C000704729B17E4A527A02437D4B5A7204E046
:1008D0007B4A527A82437A4B5A7270477B49D831AD
:1008E0000860704701460020754A506820F4404077
:1008F0000843506070470021714A20321170704ADD
:1009000082F82010012802D004280AD104E0012135
:100910006B4A2032117005E00521694A20321170BE
:1009200000E000BF00BF7047694908607047644934
:10093000096A0143624A1162704765494439086097
:10094000704730B500210022002400235C4D6D6803
:1009500005F00C0121B1042905D0082923D105E0B7
:100960005C4D056022E05B4D05601FE0544D6D68F5
:1009700005F47012524D6D6805F48034022505EBC4
:1009800092421CB9544D554305600BE04C4D6D68C7
:1009900005F400351DB1504D5543056002E04D4D45
:1009A0005543056002E04B4D056000BF00BF444D5C
:1009B0006D6805F0F0010909484D6B5C0568DD4084
:1009C00045603F4D6D6805F4E061090A434D6B5C7D
:1009D0004568DD4085603A4D6D6805F46051C90A8F
:1009E0003E4D6B5C4568DD40C560354D6D6805F476
:1009F0004041890B3A4D6B5CC568B5FBF3F5056169
:100A000030BD29B12E4A526902432D4B5A6104E090
:100A10002B4A526982432A4B5A61704729B1284AAE
:100A200092690243264B9A6104E0254A9269824307
:100A3000234B9A61704729B1214AD2690243204B66
:100A4000DA6104E01E4AD26982431D4BDA617047C5
:100A500029B11B4AD2680243194BDA6004E0184AF4
:100A6000D2688243164BDA60704729B1144A126982
:100A70000243134B1A6104E0114A12698243104B7E
:100A80001A61704712494039086070470F49C864BD
:100A900070470B49C87170470948406A40F0807040
:100AA00007494862704701460020054A92680A409B
:100AB0000AB1012000E000207047014988727047A8
:100AC000001002400000FFF8FFFFF6FE0000424267
:100AD0008004424200127A0000093D001400002008
:100AE0002400002010B50446FE48844208D10121AC
:100AF000C014FFF7ADFF0021E014FFF7A9FFC4E029
:100B0000B4F1804F08D101210846FFF7AEFF002164
:100B10000120FFF7AAFFB8E0F348844208D1012181
:100B20000220FFF7A2FF00210220FFF79EFFACE0AA
:100B3000EE48844208D101210420FFF796FF0021EE
:100B40000420FFF792FFA0E0E948844208D1012188
:100B50000820FFF78AFF00210820FFF786FF94E0B6
:100B6000E448844208D101211020FFF77EFF0021D4
:100B70001020FFF77AFF88E0DF48844208D1012186
:100B80002020FFF772FF00212020FFF76EFF7CE09E
:100B9000DA48844208D101214014FFF759FF0021AF
:100BA0006014FFF755FF70E0D548844209D1012158
:100BB000C804FFF74DFF00214FF40020FFF748FF66
:100BC00063E0D048844209D101210805FFF740FFC6
:100BD00000214FF48010FFF73BFF56E0CA488442E3
:100BE00009D101214805FFF733FF00214FF4001020
:100BF000FFF72EFF49E0C548844208D1012140207B
:100C0000FFF733FF00214020FFF72FFF3DE0C048F2
:100C1000844208D101218020FFF727FF0021802096
:100C2000FFF723FF31E0BB48844208D10121801542
:100C3000FFF71BFF0021A015FFF717FF25E0B648BF
:100C4000844209D101210804FFF702FF00214FF47B
:100C50008030FFF7FDFE18E0B048844209D1012141
:100C60004804FFF7F5FE00214FF40030FFF7F0FED7
:100C70000BE0AB48844208D101218804FFF7E8FE6D
:100C800000214FF48020FFF7E3FE10BD0022028810
:100C9000944B98420ED0994B98420BD0B0F1804FB4
:100CA00008D0914B984205D0904B984202D0904B7F
:100CB000984204D14FF68F731A404B881A438D4BDC
:100CC000984207D08C4B984204D04FF6FF431A400D
:100CD000CB881A4302808B8883850B880385814BE0
:100CE00098420BD0854B984208D08B4B984205D048
:100CF0008A4B984202D08A4B984201D10B7A0386E4
:100D000001238382704770B5002400220023058CE4
:100D10004FF6FE7635400584028C8388048B4FF6AF
:100D20008F752C40B51E2C400D882C43751E2A4013
:100D30000D892A434D882A436A4DA8420BD06F4D36
:100D4000A84208D0744DA84205D0744DA84202D0E4
:100D5000734DA84213D14FF6F7752A404D892A43A7
:100D60004FF6FB752A408D882A434FF6FF652B40CE
:100D70004FF6FF552B408D892B43CD892B43838024
:100D80000483CD888586028470BD70B5002400225E
:100D90000023058C4FF6EF7635400584028C83885E
:100DA000048B48F6FF752C404FF6FF452C400D880C
:100DB0004FF6FF7606EA05252C434FF6DF752A40ED
:100DC0000D8906EA05152A434D8806EA05152A43CA
:100DD000444DA84202D0494DA8421DD14FF67F751F
:100DE0002A404D894FF6FF7606EA05152A434FF64D
:100DF000BF752A408D8806EA05152A434FF6FF3550
:100E00002B404FF2FF752B408D8906EA85052B4359
:100E1000CD8906EA85052B4383800483CD88058729
:100E2000028470BD70B5002400220023058C4FF6AB
:100E3000FF6635400584028C8388848B4FF68F755E
:100E40002C404FF6FC752C400D882C434FF6FF5577
:100E50002A400D894FF6FF7606EA05252A434D887C
:100E600006EA05252A431F4DA84202D0234DA84279
:100E70001DD14FF2FF752A404D894FF6FF7606EAE5
:100E800005252A434FF6FF352A408D8806EA0525B9
:100E90002A434EF6FF752B404DF6FF752B408D898A
:100EA00006EA05152B43CD8906EA05152B438380F9
:100EB0008483CD888587028470BD70B500220023AD
:100EC0000024058C4EF6FF7635400584038C84881B
:100ED000828B48F6FF752A404FF6FF452A400D8861
:100EE00020E00000002C0140000400400008004009
:100EF000000C00400010004000140040003401408D
:100F0000004C0140005001400054014000180040D6
:100F1000001C00400020004000400140004401400F
:100F2000004801404FF6FF7606EA05252A434DF6B4
:100F3000FF752B400D8906EA05352B434D8806EADF
:100F400005352B43FA4DA84202D0FA4DA84208D1EC
:100F50004BF6FF752C408D894FF6FF7606EA851516
:100F60002C4384808283CD88A0F84050038470BDD8
:100F7000828B4FF2FF331A408283828B4FF6FF73CE
:100F800003EA01231A4382837047F0B50C461546E5
:100F9000002200210026078C4EF6FF7C07EA0C0792
:100FA0000784828B018C4FF6FF7707EA043640F600
:100FB000FF473A404FF6FF7707EA05273A434FF6D7
:100FC000FF7707EA03373A43D94FB8420ED0D94FDB
:100FD000B8420BD0B0F1804F08D0D74FB84205D0FF
:100FE000D64FB84202D0D64FB84206D14DF6FF7761
:100FF000394046F48057394305E047F6FF573940FA
:1010000044F48057394382830184F0BD828B4FF6CC
:10101000F3731A408283828B0A4382837047F0B550
:101020000C461546002200210026078C4FF6FF6C67
:1010300007EA0C070784828B018C4FF6FF7707EADB
:1010400004264FF60C773A404FF6FF7707EA03176E
:101050002F433A43B64FB8420ED0B64FB8420BD0EA
:10106000B0F1804F08D0B44FB84205D0B34FB8426A
:1010700002D0B34FB84206D14FF6FF57394046F47D
:101080008077394305E04FF2FF57394044F48077C9
:10109000394382830184F0BD028B4FF2FF331A4043
:1010A0000283028B4FF6FF7303EA01231A43028384
:1010B0007047F0B50C461546002200210026078C2B
:1010C0004FF6EF7C07EA0C070784028B018C4FF682
:1010D000FF7707EA041640F6FF473A404FF6FF77DE
:1010E00007EA03373A434FF6FF7707EA05273A4303
:1010F0008F4FB8420ED08F4FB8420BD0B0F1804F17
:1011000008D08D4FB84205D08C4FB84202D08C4FDA
:10111000B84206D14FF6DF77394046F01007394321
:1011200005E04FF65F77394044F0100739430283FA
:101130000184F0BD028B4FF6F3731A400283028BD9
:101140000A4302837047F0B50C4615460022002181
:10115000068C4FF6FE773E400684028B018C4FF6DC
:101160000C7632407E1C06EA03162E433243704E44
:10117000B0420ED06F4EB0420BD0B0F1804F08D0CD
:101180006D4EB04205D06D4EB04202D06C4EB042B2
:1011900006D14FF6FD76314044F00106314305E0BB
:1011A0004FF6F576314044F0010631430283018465
:1011B000F0BD70B505460C465D4885420ED05D48D1
:1011C00085420BD0B5F1804F08D05B48854205D0F1
:1011D0005A48854202D05A48854200D100E000BFFB
:1011E000208850B92389A28861882846FFF7ABFF81
:1011F000E1882846FFF79EFF25E0208804280AD1D1
:101200002389A28861882846FFF753FFE188284692
:10121000FFF742FF17E0208808280AD12389A28817
:1012200061882846FFF7FBFEE1882846FFF7EEFEBF
:1012300009E02389A28861882846FFF7A6FEE18895
:101240002846FFF795FE70BD2DE9F04105460C4696
:1012500000260127608808B9022600E00026A08841
:10126000012801D1022700E001272088A0B92389A5
:10127000A28861882846FFF766FFE1882846FFF7C5
:1012800059FF23893A4631462846FFF712FFE18885
:101290002846FFF701FF13E02389A28861882846CA
:1012A000FFF707FFE1882846FFF7F6FE23893A4655
:1012B00031462846FFF747FFE1882846FFF73AFF07
:1012C000BDE8F0810A884B881A438B881A43CB8883
:1012D0001A430B891A434B891A438B891A43A0F886
:1012E000442070474FF6FF71818000210180C1804A
:1012F0004180017270470021018041808180C1805E
:10130000018141818181C18170470021018041803B
:10131000012181800021C18001817047002101806D
:1013200041808180C18001814181818170470000BD
:10133000002C01400034014000040040000800403F
:10134000000C004021B1028842F00102028004E05A
:1013500002884FF6FE731A400280704731B1B0F830
:10136000442042F40042A0F8442005E0B0F84420B4
:10137000C2F30E02A0F8442070471AB183890B43D0
:10138000838102E083898B43838170478182704728
:1013900041EA0203A0F8483070471AB183890B4331
:1013A000838102E083898B438381704701894FF6F3
:1013B000F8721140018170470A46002101894FF6F9
:1013C0008F73194011430181704730B504460D46B3
:1013D00029462046FFF7F0FF208940F007002081D2
:1013E00030BD2DE9F04104460D4616461F46602DDE
:1013F00006D13B46012231462046FFF75AFE05E062
:101400003B46012231462046FFF79DFE29462046F5
:10141000FFF7D2FF208940F007002081BDE8F0816E
:1014200030B50C4600210189C9B24FF6FF7505EAB7
:101430000325154325432943018130BD2DE9F041A2
:1014400005460E4617469846002443463A4631461E
:101450002846FFF7E5FF2C894FF6F870044044F06A
:1014600007044FF68F70044044F070042C81BDE8EF
:10147000F081F0B504460D4616461F463B463246FF
:1014800029462046FFF7CCFF208940F48040208188
:10149000F0BD0185828270470A46002101884FF61F
:1014A0008F731940114301807047F0B50C46154603
:1014B0001E460021002200230189028B038C4FF677
:1014C000F877394021434FF6FC473A4040F2011784
:1014D0003A434FF6DD773B404FF6FF7707EA0617B2
:1014E0002F433B43018102830384F0BD0A46002160
:1014F000018B4FF68F7319401143018370470A46E1
:101500000021018B48F6FF7319404FF6FF7303EA81
:1015100002231943018370470A460021818B4FF64D
:101520008F7319401143818370470A460021818BD4
:1015300048F6FF7319404FF6FF7303EA022319437D
:101540008183704721B1028842F08002028004E06A
:1015500002884FF67F731A400280704721B182885B
:1015600042F00402828004E082884FF6FB731A4046
:101570008280704721B1828842F00802828004E0B4
:1015800082884FF6F7731A408280704721B18288B3
:1015900042F00102828004E082884FF6FE731A4016
:1015A000828070470A460021018B4FF6F77319407D
:1015B0001143018370470A460021018B4FF2FF73EC
:1015C00019404FF6FF7303EA022319430183704762
:1015D0000A460021818B4FF6F7731940114381832E
:1015E00070470A460021818B4FF2FF7319404FF676
:1015F000FF7303EA02231943818370470A460021DF
:10160000018B4FF6FB7319401143018370470A4663
:101610000021018B4FF6FF3319404FF6FF7303EAA9
:1016200002231943018370470A460021818B4FF63C
:10163000FB7319401143818370470A460021818B57
:101640004FF6FF3319404FF6FF7303EA02231943A5
:10165000818370470A460021018B4FF67F73194042
:101660001143018370470A460021018BC1F30E012B
:101670004FF6FF7303EA02231943018370470A46BA
:101680000021818B4FF67F7319401143818370478E
:101690000A460021818BC1F30E014FF6FF7303EA66
:1016A00002231943818370470A460021018C4FF6BB
:1016B000FD7319401143018470470A460021018CD3
:1016C0004FF6F77319401143018470470A46002111
:1016D000018C4FF6DF7319404FF6FF7303EA0213D4
:1016E0001943018470470A460021018C4FF67F732D
:1016F00019404FF6FF7303EA021319430184704740
:101700000A460021018C4FF6FF5319404FF6FF7334
:1017100003EA02231943018470470A460021018C21
:101720004FF2FF7319404FF6FF7303EA0223194388
:10173000018470470A460021018C4DF6FF73194061
:101740004FF6FF7303EA023319430184704730B543
:10175000002301248C40A3B2048C9C430484048C99
:1017600002FA01F5ADB22C43048430BD30B500233C
:1017700004248C40A3B2048C9C430484048C02FA9D
:1017800001F5ADB22C43048430BD70B50346002092
:1017900000241846183001258D40ACB21D8CA5439D
:1017A0001D8409B1082909D100EB6100056825F005
:1017B000700505600568154305600EE00D1FC5F353
:1017C0004E052844056825F4E045056005684FF698
:1017D000FF7606EA02263543056070BD21B1028816
:1017E00042F00202028004E002884FF6FD731A40C4
:1017F0000280704721B1028842F00402028004E0B6
:1018000002884FF6FB731A400280704721B182882C
:1018100042F08002828004E082884FF67F731A4093
:101820008280704702884FF6F7731A400280028860
:101830000A430280704782884FF68F731A40828075
:1018400082880A438280704702894FF6F8731A40F3
:10185000028102890A430281704702894FF67F7331
:101860001A40028102890A430281704781847047CD
:1018700081857047818670470187704781877047EF
:10188000A0F84010704702884FF6FF431A400280CC
:1018900002880A43028070470146888E70470146DD
:1018A000088F70470146888F70470146B1F84000A5
:1018B00070470146888C70470146088D7047024684
:1018C0000020138A0B400BB1012000E0002070477C
:1018D000CA430282704730B502460020002300242C
:1018E000158A05EA0103958905EA010413B10CB1D3
:1018F000012000E0002030BDCA4302827047000092
:1019000010B50446FB48844209D101218803FFF742
:101910009FF800214FF48040FFF79AF832E0F64834
:10192000844209D101214804FFF79FF800214FF4B8
:101930000030FFF79AF825E0F048844209D10121F0
:101940008804FFF792F800214FF48020FFF78DF80C
:1019500018E0EB48844209D10121C804FFF785F85B
:1019600000214FF40020FFF780F80BE0E5488442A7
:1019700008D101210805FFF778F800214FF4801005
:10198000FFF773F810BD2DE9F04786B005460E4607
:101990000024A24600BFA1460027B08900B100BFC5
:1019A0002F462C8A4CF6FF700440F08804432C82AA
:1019B000AC894EF6F3100440B08831890843718930
:1019C00008430443AC81AC8A4FF6FF400440B08921
:1019D0000443AC8201A8FEF7B4FFC648874202D197
:1019E000DDF810A001E0DDF80CA0A88900F40040AB
:1019F00040B10AEBCA0000EB0A1031684900B0FBA5
:101A0000F1F807E00AEBCA0000EB0A103168890020
:101A1000B0FBF1F86420B8FBF0F004012009642168
:101A200001FB1089A88900F4004040B1322000EB8E
:101A3000C900B0FBF1F000F00700044308E03220D9
:101A400000EB09106421B0FBF1F000F00F0004433B
:101A50002C8106B0BDE8F0874FF4165101600021DB
:101A60008180C18001810C214181002181817047E9
:101A700010B502460020108A4FF2FF0318400B8871
:101A80004C8823438C882343CC88234318431082FB
:101A900010BD0021018041808180C180704721B14B
:101AA000828942F40052828104E082894DF6FF73FC
:101AB0001A4082817047F0B50346002400260025B5
:101AC000002040F66A17B94200D100BF1846C1F3A2
:101AD000421401F01F06012707FA06F5012C01D177
:101AE0000C3004E0022C01D1103000E014301AB1A7
:101AF00007682F43076002E00768AF430760F0BD47
:101B00001AB1838A0B43838202E0838A8B438382E8
:101B10007047028A4FF6F0731A400282028A0A4323
:101B20000282704782894FF2FF731A408281828954
:101B30000A438281704721B1828942F00202828188
:101B400004E082894FF6FD731A4082817047028A51
:101B50004FF6DF731A400282028A0A4302827047FC
:101B600021B1028A42F48042028204E0028A4BF6EA
:101B7000FF731A4002827047C1F3080282807047E7
:101B800001468888C0F308007047818941F001014F
:101B900081817047028BD2B20283028B42EA01221A
:101BA00002837047028B02F47F420283028B0A4356
:101BB0000283704721B1828A42F02002828204E0CF
:101BC000828A4FF6DF731A408282704721B1828A7F
:101BD00042F01002828204E0828A4FF6EF731A40CC
:101BE0008282704721B1828A42F00802828204E038
:101BF000828A4FF6F7731A408282704721B1828938
:101C000042F40042828103E08289C2F30E028281A3
:101C1000704721B1828A42F40062828204E0828AA3
:101C20004FF2FF731A4082827047828A4FF6FB732D
:101C30001A408282828A0A438282704721B1828A54
:101C400042F00202828204E0828A4FF6FD731A405B
:101C50008282704702460020B1F5007F00D100BFAC
:101C600013880B400BB1012000E00020704701F405
:101C70000072B2F5007F00D100BFCA4302807047F6
:101C800070B50246002400230025002040F66A16A5
:101C9000B14200D100BFC1F3421501F01F0301267C
:101CA00006FA03F3012D02D19689334006E0022D96
:101CB00002D1168A334001E0968A33400C12012685
:101CC00006FA04F41688344013B10CB1012000E088
:101CD000002070BD10B50022002340F66A14A14216
:101CE00000D100BF0A1201249440A3B2DC43048057
:101CF00010BD000000380140004400400048004092
:101D0000004C00400050004038B50446102002232B
:101D10000090FE4802780021142001F099FC102068
:101D200002230090FA4802780021582001F090FC2C
:101D3000102002230090F74802780321142001F0BC
:101D400087FC102002230090F348027803215820DA
:101D500001F07EFC102002230090F048027806215A
:101D6000142001F075FC102002230090EC4802784A
:101D70000621582001F06CFC062C28D2DFE804F084
:101D800003284D7297BC10232A220021282001F03D
:101D9000C8FB1023202200216C2001F0C2FB10237D
:101DA00020220321282001F0BCFB10232022032144
:101DB0006C2001F0B6FB102320220621282001F020
:101DC000B0FB1023202206216C2001F0AAFBB8E012
:101DD000102320220021282001F0A3FB10232A2217
:101DE00000216C2001F09DFB1023202203212820DC
:101DF00001F097FB1023202203216C2001F091FBBE
:101E0000102320220621282001F08BFB1023202202
:101E100006216C2001F085FB93E010232022002195
:101E2000282001F07EFB1023202200216C2001F0ED
:101E300078FB10232A220321282001F072FB1023B3
:101E4000202203216C2001F06CFB102320220621AC
:101E5000282001F066FB1023202206216C2001F0CF
:101E600060FB6EE0102320220021282001F059FBA6
:101E70001023202200216C2001F053FB102320228C
:101E80000321282001F04DFB10232A2203216C207E
:101E900001F047FB102320220621282001F041FBFE
:101EA0001023202206216C2001F03BFB49E0102387
:101EB00020220021282001F034FB102320220021C1
:101EC0006C2001F02EFB102320220321282001F09A
:101ED00028FB1023202203216C2001F022FB102379
:101EE0002A220621282001F01CFB10232022062193
:101EF0006C2001F016FB24E0102320220021282072
:101F000001F00FFB1023202200216C2001F009FBBF
:101F1000102320220321282001F003FB102320227C
:101F200003216C2001F0FDFA102320220621282035
:101F300001F0F7FA10232A2206216C2001F0F1FAB1
:101F400000BF00BF38BD38B5044610200223009002
:101F50007448027803212C2001F07AFB1020022320
:101F60000090714802780321442001F071FB1F2288
:101F70000321682001F0D7FB6A4800780A2805DAB7
:101F80001023302203212C2001F0CBFA6648007880
:101F90000A2805DA102330220321442001F0C1FA77
:101FA00024B1012C15D0022C39D125E010232A228E
:101FB0000521302001F0B5FA102320220521482008
:101FC00001F0AFFA1023202205216C2001F0A9FABC
:101FD00025E0102320220521302001F0A2FA102351
:101FE0002A220521482001F09CFA102320220521F5
:101FF0006C2001F096FA12E01023202205213020F7
:1020000001F08FFA102320220521482001F089FADF
:1020100010232A2205216C2001F083FA00BF00BFA3
:1020200038BD08B5FEF7EFF801F0D4F802F0A4F9D6
:1020300002F03AFA472140F2E73001F095F801F05A
:1020400047F801F06EF801F0C3FC052001F0FFF83D
:1020500001F032FE01F022FC01F025FA642001F0CB
:10206000F6F802F07DF93148082380220021009023
:10207000084601F0B6FB4FF47A7001F0E8F801F081
:1020800012FA01F071FE02F08DFB02F06DFA02F01F
:1020900080FC03F0C5FE022003F0D9FE00F0E0BF93
:1020A000C82001F0D4F801F007FE01F023FF20481A
:1020B000007830B11F49204802F026F900201C4961
:1020C000087002F05EFC1D4804F04EF9002002F09A
:1020D00085F91B4908600846006804280AD1194898
:1020E0000068401C1749086008460068022801DDA6
:1020F000002008601348006800287DD12C220321AD
:1021000001F011FB2D22032110201DE0E80A002020
:10211000E90A0020EA0A0020EB0A0020EC0A00206D
:10212000ED0A0020F10A0020F20A0020E806002053
:10213000FC0A0020FE0A0020FD0A002004100020F6
:10214000080B00200C0B002001F0EDFAFB480068A2
:1021500002280AD1FA480068401CF949086008467C
:102160000068012801DD00200860F54800680028AB
:102170005BD1322206215A2001F0D5FAEF480068DF
:1021800001280AD1EF480068401CEE490860084663
:102190000068042801DD00200860EA48006858B99A
:1021A00010200223002206210090702001F050FA36
:1021B000002002F0C6F996E0E248006801280BD141
:1021C00010200223192206210090702001F040FA0D
:1021D000192002F0B6F986E0DA48006802280CD12E
:1021E00010200223322206210090702001F030FAE4
:1021F000322002F0A6F976E0FAE0D248006803281F
:102200000BD1102002234B2206210090702001F0F8
:102210001FFA4B2002F095F965E0CA4800680428CF
:1022200061D1642002F08DF95DE0C54800680128A5
:1022300059D1332206215A2001F075FABF480068AF
:1022400001280AD1C0480068401CBF490860084600
:102250000068042801DD00200860BB48006858B908
:1022600010200223002206210090702001F0F0F9D6
:10227000002002F06EF936E0B348006801280BD167
:1022800010200223192206210090702001F0E0F9AD
:10229000192002F05EF926E0AB48006802280BD155
:1022A00010200223322206210090702001F0D0F984
:1022B000322002F04EF916E0A348006803280BD143
:1022C000102002234B2206210090702001F0C0F95B
:1022D0004B2002F03EF906E09B480068042802D13A
:1022E000642002F036F94FF480419848FEF76DF90A
:1022F00000287DD10A2000F0AAFF4FF480419348C6
:10230000FEF763F90028F4D100BF4FF480418F48F5
:10231000FEF75BF90028F8D001F0C5F8152200217E
:10232000084601F000FA16220021442001F0FBF9D2
:1023300017220321002001F0F6F91822032144207E
:1023400001F0F1F919220621002001F0ECF91A221E
:102350000621442001F0E7F97D480078FFF7D4FC1E
:10236000D3E11020022300907A4802780021142043
:1023700001F06EF9102002230090774802780021C6
:10238000582001F065F9102002230090734802786C
:102390000321142001F05CF9102002230090704802
:1023A00002780321582001F053F9102002230090F5
:1023B0006C4802780621142001F04AF9102002230B
:1023C0000090694802780621582001F041F94FF445
:1023D00000415E48FEF7F9F808BB0A2000F037FF1D
:1023E0004FF400415948FEF7F0F8C0B900BF00E0D3
:1023F000EFE34FF400415548FEF7E7F80028F6D028
:1024000053480078401C5249087008460078052857
:1024100001DD002008704E480078FFF775FC4FF48E
:1024200080514A48FEF7D1F8002869D10A2000F00F
:102430000EFF4FF480514548FEF7C7F800285FD1E2
:1024400000BF4FF480514148FEF7BFF80028F8D094
:102450003F480078062828D2DFE800F003090F156E
:102460001B213C480078401C3A4908701DE03A485E
:102470000078401C3849087017E038480078401C44
:102480003649087011E036480078401C344908701D
:102490000BE034480078401C3249087005E03248AF
:1024A0000078401C3049087000BF00BF2948007800
:1024B0003B2802DD3B2027490870274800780C287C
:1024C00002DD0C2024490870244800781F2802DD12
:1024D0001F202249087022480078172802DD1720A3
:1024E0001F4908701F4800783B2802DD3B201D492A
:1024F00008701D480078072802DD07201A49087077
:102500004FF400511148FEF760F800287ED10A20F0
:1025100000F09DFE4FF400510C48FEF756F80028DD
:102520007AD100BF4FF400510848FEF74EF800285A
:10253000F8D007480078062841D217E0080B0020A1
:10254000140B0020180B00201C0B0020000C014075
:10255000EE0A0020E80A0020E90A0020EA0A00202A
:10256000EB0A0020EC0A0020ED0A0020DFE800F072
:1025700003090F151B21F8480078401EF649087022
:102580001DE0F6480078401EF449087017E0F44852
:102590000078401EF249087011E0F2480078401EB1
:1025A000F04908700BE0F0480078401EEE490870D2
:1025B00005E0EE480078401EEC49087000BF00BFFF
:1025C000E5480078012802DC0120E3490870E3486F
:1025D0000078012802DA0120E0490870E04800781C
:1025E000012802DA0120DE490870DE48007801285F
:1025F00002DA0120DB490870DB480078012802DAA2
:102600000120D9490870D948007800E004E0012889
:1026100002DA0120D54908704FF48041D448FDF713
:10262000D4FF002871D10A2000F011FE4FF4804140
:10263000CF48FDF7CAFF0028F4D100BF4FF4804116
:10264000CB48FDF7C2FF0028F8D0C34800783C28EB
:1026500070D2DFE800F01E22262A2E32363A3E42A1
:10266000464A4E52565B5F63676B7074787C808419
:10267000888C9094989CA0A4A8ACB0B4B8BCC0C4FA
:10268000C8CCD0D4D8DCE0EFF3F7FBFFE9E8E7E60D
:10269000E5E40020B7494870FCE00120B5494870E6
:1026A000F8E00220B3494870F4E00320B1494870D3
:1026B000F0E00420AF494870ECE00520AD494870D7
:1026C000E8E00620AB494870E4E00720A9494870DB
:1026D000E0E00820A7494870DCE00920A5494870DF
:1026E000D8E01020A3494870D4E01120A1494870D7
:1026F000D0E012209F494870CCE013209D494870DB
:10270000C8E014209B494870C4E086E3152099492D
:102710004870BFE0162097494870BBE017209549E4
:102720004870B7E0182093494870B3E019209149E8
:102730004870AFE0AAE020208E494870AAE021202E
:102740008C494870A6E022208A494870A2E02320E4
:10275000884948709EE02420864948709AE02520E8
:102760008449487096E026208249487092E02720EC
:10277000804948708EE028207E4948708AE02920F0
:102780007C49487086E030207A49487082E03120E8
:10279000784948707EE03220764948707AE03320EC
:1027A0007449487076E034207249487072E03520F0
:1027B000704948706EE036206E4948706AE03720F4
:1027C0006C49487066E038206A49487062E03920F8
:1027D000684948705EE04020664948705AE04120F0
:1027E0006449487056E042206249487052E04320F4
:1027F000604948704EE044205E4948704AE04520F8
:102800005C49487046E046205A49487042E04720FB
:10281000584948703EE04820564948703AE031E057
:102820002CE027E022E01DE018E013E00EE009E0D4
:1028300004E0FFE749204F4948702BE050204D4904
:10284000487027E051204B49487023E05220494905
:1028500048701FE05320474948701BE05420454909
:10286000487017E055204349487013E0562041490D
:1028700048700FE057203F4948700BE058203D4911
:10288000487007E059203B49487003E0012039496E
:10289000487000BF00BF314800780D2838D2DFE80B
:1028A00000F037070B0F13171B1F23272B2F3300A5
:1028B0000120304988702FE002202E4988702BE0DB
:1028C00003202C49887027E004202A49887023E0DF
:1028D0000520284988701FE00620264988701BE0E3
:1028E00007202449887017E008202249887013E0E7
:1028F0000920204988700FE010201E4988700BE0E5
:1029000011201C49887007E012201A49887003E0E2
:1029100001201849887000BF00BF114800782028A6
:1029200072D2DFE800F09E1014292D3135393D4177
:1029300045494D5155595D6165696D72767A7E8262
:10294000868A8E92969A01200A49C8708DE00220EC
:102950000849C87089E00000E80A0020E90A002060
:10296000EA0A0020EB0A0020EC0A0020ED0A002011
:10297000000C0140330B00200320ED49C87074E0C7
:102980000420EB49C87070E00520E949C8706CE08C
:102990000620E749C87068E00720E549C87064E090
:1029A0000820E349C87060E00920E149C8705CE094
:1029B0001020DF49C87058E01120DD49C87054E08C
:1029C0001220DB49C87050E01320D949C8704CE090
:1029D0001420D749C87048E01520D549C87044E094
:1029E0001620D349C87040E01720D149C8703CE098
:1029F0001820CF49C87038E01920CD49C87034E09C
:102A00002020CB49C87030E02BE02120C849C87095
:102A10002BE02220C649C87027E02320C449C87093
:102A200023E02420C249C8701FE02520C049C87097
:102A30001BE02620BE49C87017E02720BC49C8709B
:102A400013E02820BA49C8700FE02920B849C8709F
:102A50000BE03020B649C87007E03120B449C87097
:102A600003E00120B249C87000BF00BFB148007840
:102A700018286DD2DFE800F00C1014181C20242850
:102A80002C3034383C4044484C5054585C606468A6
:102A90000020A74908715FE00120A54908715BE0AB
:102AA0000220A349087157E00320A149087153E0AF
:102AB00004209F4908714FE005209D4908714BE0B3
:102AC00006209B49087147E007209949087143E0B7
:102AD0000820974908713FE00920954908713BE0BB
:102AE00010209349087137E011209149087133E0B3
:102AF00012208F4908712FE013208D4908712BE0B7
:102B000014208B49087127E015208949087123E0BA
:102B10001620874908711FE01720854908711BE0BE
:102B200018208349087117E019208149087113E0C2
:102B300020207F4908710FE021207D4908710BE0BA
:102B400022207B49087107E023207949087103E0BE
:102B500001207749087100BF00BF774800783C2802
:102B600070D2DFE800F01E22262A2E32373B3F4388
:102B7000474B4F53575B5F63676B7074787C8084FF
:102B8000888C9094989CA0A4A8ACB0B4B8BCC0C4E5
:102B9000C8CCD0D4D8DCE0F5F9FDF1F0EFEEEDECE7
:102BA000EBE400206249487102E10120604948716C
:102BB000FEE002205E494871FAE003205C4948715A
:102BC000F6E004205A494871F2E00520584948715E
:102BD000EEE025E1062056494871E9E00720544916
:102BE0004871E5E0082052494871E1E00920504968
:102BF0004871DDE010204E494871D9E011204C4960
:102C00004871D5E012204A494871D1E01320484963
:102C10004871CDE0142046494871C9E01520444967
:102C20004871C5E0162042494871C1E0172040496B
:102C30004871BDE018203E494871B9E019203C496F
:102C40004871B5E0B0E0202039494871B0E021205A
:102C500037494871ACE0222035494871A8E023206B
:102C600033494871A4E0242031494871A0E025206F
:102C70002F4948719CE026202D49487198E0272073
:102C80002B49487194E028202949487190E0292077
:102C9000274948718CE030202549487188E031206F
:102CA0002349487184E032202149487180E0332073
:102CB0001F4948717CE034201D49487178E0352077
:102CC0001B49487174E036201949487170E037207B
:102CD000174948716CE038201549487168E039207F
:102CE0001349487164E040201149487160E0412077
:102CF0000F4948715CE042200D49487158E043207B
:102D00000B49487154E044200949487150E045207E
:102D1000074948714CE046200549487148E0472082
:102D20000349487144E048200149487140E037E0D8
:102D3000330B0020EB0A0020EC0A00202CE027E0F7
:102D400022E01DE018E013E00EE009E004E0FFE7F8
:102D50004920C44948712BE05020C249487127E0FE
:102D60005120C049487123E05220BE4948711FE0FC
:102D70005320BC4948711BE05420BA49487117E000
:102D80005520B849487113E05620B64948710FE004
:102D90005720B44948710BE05820B249487107E008
:102DA0005920B049487103E00120AE49487100BF85
:102DB00000BFAD480078082821D2DFE800F02004E9
:102DC000080C1014181C0120A64988711BE0022071
:102DD000A449887117E00320A249887113E00420F8
:102DE000A04988710FE005209E4988710BE00620FC
:102DF0009C49887107E007209A49887103E0012007
:102E00009849887100BF00BF00F009FF00F04BFB3C
:102E100000F052FF01F01DF901E0FFF7A2BA00BF78
:102E200092480068012809D12E220321002000F0D9
:102E30007AFC2F220321102000F075FC8B480068DB
:102E4000022872D130220321002000F06CFC3122D4
:102E50000321102000F067FC854800780F281CD261
:102E6000DFE800F0FD081C30415264758697A8B970
:102E7000CADBEC00322001F064FB322001F069FB78
:102E8000352206215A2000F04EFC10200223322267
:102E900006210090702000F0DBFBE0E0002001F054
:102EA00050FB002001F055FB352206215A2000F08E
:102EB0003AFC10200223002206210090702000F02E
:102EC000C7FBCCE0322001F044FB332206215A201C
:102ED00000F029FC102002233222062100907020ED
:102EE00000F0B6FBBBE0002001F033FB33220621EB
:102EF0005A2000F018FC1020022300220621009026
:102F0000702000F0A5FBAAE04B2001F022FB332249
:102F100006215A2000F007FC102002234B22062134
:102F20000090702000F094FB99E099E0322001F0CD
:102F300010FB332206215A2000F0F5FB102002235B
:102F4000322206210090702000F082FB87E01920D9
:102F500001F0FFFA332206215A2000F0E4FB102092
:102F60000223192206210090702000F071FB76E008
:102F7000642001F0EEFA332206215A2000F0D3FB40
:102F800010200223642206210090702000F060FBD4
:102F900065E0002001F0D5FA322206215A2000F027
:102FA000C2FB10200223002206210090702000F0B6
:102FB0004FFB54E0192001F0C4FA322206215A20B6
:102FC00000F0B1FB1020022319220621009070208E
:102FD00000F03EFB43E0322001F0B3FA322206213A
:102FE0005A2000F0A0FB102002233222062100907C
:102FF000702000F02DFB32E04B2001F0A2FA3222CB
:1030000006215A2000F08FFB102002234B220621BC
:103010000090702000F01CFB21E0642001F091FA88
:10302000322206215A2000F07EFB10200223642267
:1030300006210090702000F00BFB10E0322001F020
:1030400080FA322206215A2000F06DFB1020022364
:10305000322206210090702000F0FAFA00BF00BF73
:10306000FFF71EB8330B0020ED0A00200C0B0020E8
:103070003D0B0020704700BFFEE700BFFEE700BF2A
:10308000FEE700BFFEE7704770477047704710B516
:1030900001210C48FEF71FFC18B101210948FEF779
:1030A0002BFC00BF08480088401C074908800846E0
:1030B0000088C82804DB002008800120034908702C
:1030C00010BD000000080040FA0A0020FC0A0020A1
:1030D0000EB501210420FDF7AEFC3C48FDF702FDD2
:1030E0003A48FEF763F94720ADF8000042F20F704E
:1030F000ADF804000020ADF80600ADF80200694606
:103100003248FDF7C3FD01213048FEF7E1FB012203
:1031100011462E48FEF731F901212C48FEF712F92D
:103120000EBD08B54FF4A060FDF7EEF81E208DF837
:10313000000000208DF8010001208DF802008DF8BC
:1031400003006846FDF7E5F81D208DF8000000201B
:103150008DF8010003208DF8020001208DF8030096
:103160006846FDF7D6F808BD3EB505460C46012178
:103170000220FDF760FCADF80450ADF800400020DF
:10318000ADF80600ADF802008DF808006946104859
:10319000FDF77CFD01210E48FEF79AFB0122114646
:1031A0000B48FEF7EAF801210948FEF7CBF83EBDCF
:1031B00010B501210648FEF78EFB28B10121044815
:1031C000FEF79AFB01F0F1FB10BD00000008004083
:1031D0000004004010B56FF00400FDF7E4F82E483D
:1031E00000682E49B0FBF1F02D49087008460078C0
:1031F00000EB4001C1EBC0104FF6FF7101EAC000C7
:103200002849088010BD0146254A12784A434FF0EC
:10321000E0235A6100229A611A46126942F00102C3
:103220001A6100BF4FF0E022106900F001021AB1EC
:1032300000F48032002AF5D04FF0E022126922F02B
:1032400001024FF0E0231A6100229A6170470146A3
:10325000144A12884A434FF0E0235A6100229A61CF
:103260001A46126942F001021A6100BF4FF0E022D3
:10327000106900F001021AB100F48032002AF5D082
:103280004FF0E022126922F001024FF0E0231A61B0
:1032900000229A61704700000000002000127A00AE
:1032A000200B0020220B002010B54FF48061FE4857
:1032B000FDF7A5F94FF40061FB48FDF7A0F94FF4C5
:1032C0000061F948FDF79DF94FF48061F648FDF77C
:1032D00098F910BD10B54FF48061F348FDF78FF9F0
:1032E0004FF40061F048FDF78CF94FF40061EE48AF
:1032F000FDF785F910BD10B54FF48061EA48FDF780
:103300007EF94FF48061E848FDF77BF910BD2DE9A7
:10331000F04105462C464FF48061E348FDF771F912
:1033200000261CE0274607F08007802F04D13901D2
:10333000DD48FDF764F904E04FF40061DA48FDF779
:1033400060F96006040E4FF48061D748FDF757F925
:103350004FF48061D448FDF754F9701CC6B2082EB2
:10336000E0DBBDE8F08110B50446FFF79DFF782053
:10337000FFF7CDFFFFF7BFFF0020FFF7C8FFFFF704
:10338000BAFF2046FFF7C3FFFFF7B5FFFFF7A2FF25
:1033900010BD10B50446FFF787FF7820FFF7B7FF91
:1033A000FFF7A9FF4020FFF7B2FFFFF7A4FF204679
:1033B000FFF7ADFFFFF79FFFFFF78CFF10BD70B564
:1033C00004460D461DB1E0B2FFF7E3FF02E0E0B2B4
:1033D000FFF7C9FF70BD70B50646002418E004F180
:1033E000B0000021FFF7EBFF00210846FFF7E7FFE1
:1033F00000211020FFF7E3FF002505E00121304602
:10340000FFF7DDFF681CC5B2802DF7DB601CC4B27E
:10341000082CE4DB70BD06E041F6650100E0491EC2
:103420000029FCD1401E0028F6D17047014605E076
:10343000002001E0421CD0B27B28FBDB0A1EA1F178
:103440000101F5D1704770B504460D4605F1B00095
:103450000021FFF7B4FF102141EA14100021FFF70B
:10346000AEFF04F00F000021FFF7A9FF70BD10B5FB
:1034700000218D20FFF7A3FF00211420FFF79FFFFD
:103480000021AF20FFF79BFF10BD10B500218D205C
:10349000FFF795FF00211020FFF791FF0021AE20DC
:1034A000FFF78DFF10BD70B5002418E004F1B000E7
:1034B0000021FFF784FF00210846FFF780FF00216D
:1034C0001020FFF77CFF002505E001210020FFF719
:1034D00076FF681CC5B2802DF7DB601CC4B2082CD7
:1034E000E4DB70BD70B5002418E004F1B0000021E9
:1034F000FFF765FF00210846FFF761FF002110205C
:10350000FFF75DFF002505E001210846FFF757FFA3
:10351000681CC5B2802DF7DB601CC4B2082CE4DB4C
:1035200070BD2DE9F04707460E46904699460025A6
:103530000024A8F12000C5B27F2F02DD0027B01CB7
:10354000C6B2B9F1100F24D131463846FFF77BFFE0
:10355000002408E004EB0511544A505C0121FFF7F8
:103560002EFF601CC4B2082CF4DB701CC1B23846BC
:10357000FFF769FF002409E004EB051108314B4A0D
:10358000505C0121FFF71BFF601CC4B2082CF3DB69
:1035900012E031463846FFF756FF00240AE005EBFB
:1035A0004501434A02EB4101085D0121FFF707FF96
:1035B000601CC4B2062CF2DBBDE8F08710B50446EF
:1035C0001CB90021A620FFF7FAFE012C03D100212F
:1035D000A720FFF7F4FE10BD10B504463CB900214A
:1035E000C820FFF7ECFE0021A120FFF7E8FE012C28
:1035F00007D10021C020FFF7E2FE0021A020FFF745
:10360000DEFE10BD70B50A46CE1701EB5676C6F346
:10361000C703CE1701EB5676F610A1EBC606F4B23F
:103620000122A240D5B2234A02EBC002D25C2A4357
:10363000204E06EBC006F25470BD10B502460120C4
:1036400000E050430B1EA1F10104E1B2F9D110BD1D
:103650002DE9FF5F074691461E460E9D4FF0000A7A
:1036600000243FE0301B401EC1B20A20FFF7E5FFF7
:10367000B9FBF0F00A21B0FBF1F201FB1208BAF13C
:10368000000F1ED1701EA0421BDDB8F1000F16D135
:10369000AB4605EBDB71491001FB0471C8B22B4648
:1036A0002022019908E00000000C0140247B000862
:1036B000FC7800085C0B0020FFF733FF10E04FF0B0
:1036C000010AAB4605EBDB71491001FB0471C8B27E
:1036D00008F13001CAB22B460199FFF722FF00BF63
:1036E000601CC4B2B442BDDBBDE8FF9F2DE9F041D0
:1036F00004460F461546984600260FE0AA5D43464D
:1037000039462046FFF70DFF04F10800C4B2782CBB
:1037100002DD0024B81CC7B2701CC6B2A85D002828
:10372000ECD1BDE8F0812DE9F04180460E4615460A
:10373000002731464046FFF786FE00240AE0A14AF2
:1037400002EB4511085D0121FFF739FE781CC7B275
:10375000601CC4B2102CF2DB701CC1B24046FFF7F3
:1037600072FE00240CE06900491C964A02EB01112C
:10377000085D0121FFF723FE781CC7B2601CC4B2AC
:10378000102CF0DBBDE8F08170B50B46CE1701EBD5
:103790005676C6F3C702CE1701EB5676F610A1EBAC
:1037A000C606F4B20123A340DDB2874B03EBC0038E
:1037B0009B5CDB43844E06EBC006B354824B03EBA9
:1037C000C0039B5C2B43804E06EBC006B3547E4B7C
:1037D00003EBC0039B5CDB437B4E06EBC006B3549C
:1037E00070BD2DE9F05F06460F4690461C46DDF899
:1037F00028A04FF0000BE11704EB5171C910A4EBA6
:10380000C10131B92046E11704EB5171C1F3C7057D
:1038100006E02046E11704EB5171C910491CCDB2F6
:103820003D4615E029463046FFF70DFEB1460BE058
:1038300059460BF1010B1AF801000121FFF7BFFDFA
:1038400009F1010000F0FF09C145F1DB681CC5B2B8
:10385000A542E7DBBDE8F09F70B500241BE004F152
:10386000B0000021FFF7ABFD00210846FFF7A7FDE0
:1038700000211020FFF7A3FD002508E0524901EBCD
:10388000C501085D0121FFF79AFD681CC5B2802DB6
:10389000F4DB601CC4B2082CE1DB70BD08B501216B
:1038A0000820FDF7BBF84FF40060ADF800000320DE
:1038B0008DF8020010208DF8030069464348FCF79C
:1038C000F1FD4FF48060ADF8000003208DF8020098
:1038D00010208DF8030069463C48FCF7E3FD002109
:1038E000AE20FFF76CFD00210846FFF768FD0021C0
:1038F0001020FFF764FD00214020FFF760FD00214C
:103900008120FFF75CFD0021CF20FFF758FD00214B
:10391000A120FFF754FD0021C820FFF750FD002132
:10392000A620FFF74CFD0021A820FFF748FD00214D
:103930003F20FFF744FD0021D320FFF740FD002189
:103940000846FFF73CFD0021D520FFF738FD002198
:103950008020FFF734FD0021D920FFF730FD002142
:10396000F120FFF72CFD0021DA20FFF728FD0021D0
:103970001220FFF724FD0021DB20FFF720FD0021AE
:103980004020FFF71CFD00212020FFF718FD00213B
:103990000220FFF714FD00218D20FFF710FD00210C
:1039A0001420FFF70CFD0021A420FFF708FD0021E3
:1039B000A620FFF704FD0021AF20FFF700FDFFF771
:1039C00072FD08BD280000205C0B0020000C0140A7
:1039D00008B501210820FDF721F88020ADF800008E
:1039E00003208DF8020010208DF803006946FE4880
:1039F000FCF758FD8021FC48FCF703FE012108205C
:103A0000FDF70CF84FF40070ADF8000003208DF8BE
:103A1000020010208DF803006946F348FCF742FDD0
:103A20004FF40071F048FCF7ECFD08BD08B501212A
:103A30000820FCF7F3FF4FF48070ADF8000003207E
:103A40008DF8020010208DF803006946E648FCF767
:103A500029FD4FF48071E448FCF7D3FD08BD08B59B
:103A600001210820FCF7DAFF4FF48070ADF8000068
:103A700004208DF803006946DB48FCF713FD08BD00
:103A800070B504460025FFF7D1FF4FF40071D6480A
:103A9000FCF7B7FD00BF1AE04FF40071D248FCF705
:103AA000B0FD04F0010028B14FF48071CE48FCF75E
:103AB000A6FD04E04FF48071CB48FCF7A2FD4FF463
:103AC0000071C948FCF79BFD6410681CC5B2082D45
:103AD000E2DB70BD2DE9F04104460D4626462F4637
:103AE0008021C148FCF78DFD4FF40071BE48FCF702
:103AF00088FD0120FFF787FB8021BB48FCF77FFD95
:103B00000220FFF780FB3046FFF7BAFF3846FFF789
:103B1000B7FF8021B448FCF774FD4FF40071B24840
:103B2000FCF76FFD0220FFF76EFBBDE8F0812DE989
:103B3000F04105462F46002600248021AA48FCF7C4
:103B400060FD4FF40071A848FCF75BFD0320FFF710
:103B50005AFB8021A448FCF752FD0320FFF753FBDA
:103B60003846FFF78DFFFFF77AFF0220FFF74BFB88
:103B700000BF1DE00220FFF746FB64104FF4007108
:103B80009948FCF73CFD0420FFF73DFB4FF4007122
:103B90009548FCF736FD0E20FFF735FB4FF480719A
:103BA0009148FCF712FD08B144F08004701CC6B2C5
:103BB000082EDFDB0220FFF726FB80218A48FCF776
:103BC00020FD4FF480718848FCF71BFD2046BDE8BE
:103BD000F08110B500218E20FFF77CFF3721802077
:103BE000FFF778FF20218220FFF774FF2321842034
:103BF000FFF770FF19218620FFF76CFF082188204E
:103C0000FFF768FF05218A20FFF764FF22218C203F
:103C1000FFF760FF80218E20FFF75CFF10BD10B51D
:103C200000218E20FFF756FF704841798220FFF770
:103C300051FF6E4801798420FFF74CFF6B48C17833
:103C40008620FFF747FF694881788820FFF742FF09
:103C5000664881798A20FFF73DFF644841788C20CF
:103C6000FFF738FF80218E20FFF734FF10BD10B51D
:103C70008120FFF75CFF5E4908708320FFF757FF44
:103C80005B4948708520FFF752FF594988708720AB
:103C9000FFF74DFF5649C8708920FFF748FF544988
:103CA00008718B20FFF743FF514948718D20FFF7C2
:103CB0003EFF4F49887110BD10B5FFF7D8FF4C4843
:103CC000007800F00F004A490978091101EB8101E1
:103CD00000EB4100474988714548407800F00F00EB
:103CE00043494978C1F3021101EB810100EB410026
:103CF000404948713E48807800F00F003C4989787F
:103D0000091101EB810100EB41003A490871384883
:103D1000C07800F00F003649C978091101EB810124
:103D200000EB41003349C8703148007900F00F00C2
:103D30002F490979091101EB810100EB41002D495F
:103D400088702B484079C8712948807900F00F00AD
:103D500027498979091101EB810100EB410000F548
:103D6000FA602449088010BD08B50C2200215420B7
:103D7000FFF7D9FC0D2200216220FFF7D4FC1D487B
:103D8000C0790D30C2B200217020FFF7CCFC1020AA
:103D9000009018480288042300210846FFF758FCC9
:103DA000102315A200212020FFF7A0FC1020009076
:103DB00010488278022300212A20FFF749FC1023B3
:103DC0000DA200213A20FFF791FC10200090094835
:103DD000C278022300214420FFF73AFC054880788E
:103DE0000A2810DA102309E0000C0140330B0020F0
:103DF0002C0B0020240B00202D000000F3A200213A
:103E00002A20FFF773FCF248C0780A2805DA10234D
:103E1000EEA200214420FFF769FC10200090EC483E
:103E20000279022303212220FFF712FC1023E9A2CA
:103E300003213220FFF75AFC10200090E448427919
:103E4000022303213A20FFF703FC1023E1A2032100
:103E50004A20FFF74BFC10200090DD4882790223B6
:103E600003215220FFF7F4FBD94840790A2805DAEC
:103E70001023D6A203213A20FFF738FCD4488079DA
:103E80000A2805DA1023D1A203215220FFF72EFCC5
:103E9000CF4800790A2805DA1023CCA2032122207A
:103EA000FFF724FC2A2206210020FFF73CFC10200B
:103EB00002230090C848027806211020FFF7C8FBB3
:103EC000272206212020FFF72EFC2B22062130205E
:103ED000FFF729FC102002230090C0480278062139
:103EE0004020FFF7B5FB1023BDA206215020FFF7AD
:103EF000FDFB08BD08B510200090B548827902236B
:103F000003215220FFF7A4FBB14880790A2805DA83
:103F10001023AEA203215220FFF7E8FBAC488079C2
:103F200000286ED110200090A948028804230021A7
:103F30000846FFF78DFB1023AFF24412002120202A
:103F4000FFF7D4FB10200090A148827802230021C3
:103F50002A20FFF77DFB1023AFF2641200213A20E4
:103F6000FFF7C4FB102000909948C278022300217B
:103F70004420FFF76DFB964880780A2805DA102365
:103F800092A200212A20FFF7B1FB9148C0780A28AD
:103F900005DA10238DA200214420FFF7A7FB102093
:103FA00000908B480279022303212220FFF750FB67
:103FB000102388A203213220FFF798FB10200090E5
:103FC00083484279022303213A20FFF741FB102363
:103FD00080A203214A20FFF789FB7D4840790A2807
:103FE00005DA102379A203213A20FFF77FFB7848F6
:103FF00000790A2805DA102374A203212220FFF792
:1040000075FB2A2206210020FFF78DFB10200223DA
:1040100000907148027806211020FFF719FB272233
:1040200006212020FFF77FFB2B2206213020FFF7FF
:104030007AFB102002230090684802780621402075
:10404000FFF706FB102366A206215020FFF74EFB68
:1040500008BD08B50C2200215420FFF764FB0D2297
:1040600000216220FFF75FFB5948C0790D30C2B2D2
:1040700000217020FFF757FB1020009054488279F0
:10408000022303215220FFF7E3FA514880790A28DE
:1040900005DA10234DA203215220FFF727FB102041
:1040A00000904B480288042300210846FFF7D0FA0D
:1040B0001023AFF2BC2200212020FFF717FB1020B5
:1040C000009043488278022300212A20FFF7C0FA9B
:1040D0001023AFF2DC2200213A20FFF707FB10206B
:1040E00000903B48C278022300214420FFF7B0FA39
:1040F000374880780A2805DA102334A200212A20C4
:10410000FFF7F4FA3248C0780A2805DA10232FA204
:1041100000214420FFF7EAFA102000902C48027991
:10412000022303212220FFF793FA102329A203215F
:104130003220FFF7DBFA1020009025484279022355
:1041400003213A20FFF784FA102322A203214A20F8
:10415000FFF7CCFA1E4840790A2805DA10231BA283
:1041600003213A20FFF7C2FA194800790A2805DA34
:10417000102316A203212220FFF7B8FA2A220621D3
:104180000020FFF7D0FA1020022300901248027896
:1041900006211020FFF75CFA272206212020FFF7D6
:1041A000C2FA2B2206213020FFF7BDFA102002238D
:1041B00000900A48027806214020FFF749FA1023B0
:1041C00007A206215020FFF791FA08BD3000000039
:1041D000240B00203A000000FD0A0020FE0A002007
:1041E0002500000008B501210520FCF717FC4FF45D
:1041F0008070ADF8000010208DF8030003208DF8CA
:10420000020069465948FCF74DF908BD08B501217F
:104210000520FCF703FC4FF48070ADF8000004208B
:104220008DF8030069465148FCF73CF908BD10B50C
:10423000FFF7D8FF00204E4908601420FFF707F869
:1042400001204C49C1F8A0011E20FEF7DCFF10BD83
:1042500010B50024FFF7DAFF04E0601CC4B20120AF
:10426000FEF7D1FF42488038006808B1642CF4DBC7
:10427000642C01DB012010BD002404E0601CC4B2EA
:104280000120FEF7C0FF3A488038006808B9642C66
:10429000F4DB642C01DB0120EDE70020EBE710B537
:1042A000002404E0601CC4B20120FEF7ACFF3048DB
:1042B0008038006808B1642CF4DB002404E0601C42
:1042C000C4B20120FEF79FFF29488038006808B972
:1042D000642CF4DB2820FEF796FF25488038006820
:1042E00008B1012010BD0020FCE770B500240025B6
:1042F00006E06006040EFFF7D2FF0443681CC5B257
:10430000082DF6DB204670BD7CB505460E46FFF74E
:104310008EFFFFF79DFFF8B9002405E0FFF7E5FFEA
:104320000DF80400601CC4B2052CF7DB9DF80000FA
:104330009DF8011008449DF8021008449DF80310F0
:1043400008449DF80410884208D19DF800003070A0
:104350009DF80200287001E001207CBD0020FCE7F0
:1043600010B5FFF764FFFFF773FF10BD00080140B1
:10437000A00121420000214208B501210820FCF7DC
:104380004DFB4FF40050ADF8000048208DF80300BD
:1043900069464348FCF786F84FF40040ADF800004A
:1043A00048208DF8030069463D48FCF77BF84FF440
:1043B0008040ADF8000048208DF803006946384879
:1043C000FCF770F84FF48050ADF8000048208DF8ED
:1043D000030069463248FCF765F808BD10B504468D
:1043E00014B101202F4908702E48007890B34FF483
:1043F00080512B48FCF7E9F888B14FF40051284868
:10440000FCF7E3F858B14FF480412548FCF7DDF89C
:1044100028B14FF400412248FCF7D7F8D0B900206A
:10442000204908704FF480511D48FCF7CEF808B9B8
:10443000012010BD4FF400511948FCF7C6F808B927
:104440000220F6E74FF480411548FCF7BEF810B99A
:104450000320EEE707E04FF400411148FCF7B5F800
:10446000E0B90420E5E74FF480510D48FCF7ADF8C2
:10447000012813D141030A48FCF7A7F801280DD100
:1044800081030748FCF7A1F8012807D1C1030448BC
:10449000FCF79BF8012801D1024908700020C8E709
:1044A000000C01403B0B002000B589B001210846FB
:1044B000FCF7C1FA01210420FCF7B0FA18208DF8AE
:1044C00023000320ADF820008DF8220008A925481C
:1044D000FBF7E8FF4FF08040FCF768FF0020ADF8E5
:1044E0001A00ADF816006320ADF8180040F2CF2096
:1044F000ADF8140000208DF81C0005A94FF0804095
:10450000FCF7C4FB01A8FCF7F6FE6020ADF8040040
:104510000020ADF80C000120ADF806000020ADF839
:104520000A0001A94FF08040FCF7EDFB01A94FF014
:104530008040FCF72AFC01218807FCF703FF09B043
:1045400000BD10B5044621464FF08040FDF792F9BA
:1045500010BD10B5044621464FF08040FDF78CF9A0
:1045600010BD00000008014000B587B001214804DB
:10457000FCF761FA01210420FCF750FA0420ADF8A1
:10458000180003208DF81A0018208DF81B0006A9CA
:104590002948FBF787FF0820ADF8180004208DF8A4
:1045A0001B0006A92448FBF77DFF26208DF8040098
:1045B00000208DF8050002208DF8060001208DF8FE
:1045C000070001A8FBF7A5FE1C48FDF799F94FF479
:1045D000165002900020ADF80C00ADF80E00ADF8BA
:1045E0001000ADF814000C20ADF8120002A9134819
:1045F000FDF7C9F9012240F225511048FDF75BFA99
:1046000001210E48FDF74BFA07B000BD08B540F296
:1046100025510A48FDF734FB68B140F2255107489F
:10462000FDF758FB0548FDF7ABFAC0B20090012139
:10463000684600F073FA08BD0008014000440040DD
:1046400010B586B0044601210820FCF7E7F90121E6
:104650008804FCF7F0F94FF48060ADF814000320F3
:104660008DF8160018208DF8170005A94948FBF7AA
:1046700019FF4FF40060ADF8140004208DF8170006
:1046800005A94448FBF70EFF4348FDF739F90194AB
:104690000020ADF80800ADF80A00ADF80C00ADF848
:1046A00010000C20ADF80E0001A93B48FDF76BF996
:1046B00027208DF8000000208DF8010003208DF8E0
:1046C000020001208DF803006846FBF722FE01225C
:1046D00040F225513048FDF7EEF901212E48FDF753
:1046E000DEF906B010BD10B5044600BF80212A488F
:1046F000FDF7B0FA0028F9D021462748FDF73CFA2B
:1047000000BF40212448FDF7A5FA0028F9D010BDCC
:1047100010B540F225512048FDF7B2FA48B140F2F9
:1047200025511D48FDF7D6FA1B48FDF729FA1B490C
:10473000087010BD70B505460024AA20FFF7D3FF0E
:104740005520FFF7D0FF00BF05E0154911F8240000
:10475000FFF7C9FF641CAC42F7DB5520FFF7C3FF2E
:10476000AA20FFF7C0FF70BD70B506460C4615467F
:104770000B480660446085600320FFF7DBFF70BDD7
:1047800070B505460C460648056044600220FFF7F8
:10479000D1FF70BD000C0140004800403C0B0020E0
:1047A000DC0F002000B587B0012144F20400FCF7C3
:1047B00035F94FF48060ADF8180004208DF81B0027
:1047C00003208DF81A0006A92E48FBF76BFE4FF464
:1047D0000070ADF8180010208DF81B0006A92948BC
:1047E000FBF760FE25208DF8040000208DF8050001
:1047F00003208DF8060001208DF8070001A8FBF7C3
:1048000088FD4FF4165002900020ADF80C00ADF872
:104810000E00ADF81000ADF814000C20ADF8120039
:1048200002A91948FDF7AFF8012240F225511648B8
:10483000FDF741F901211448FDF731F907B000BD3A
:1048400070B504460D46E1B20F48FDF795F900BF7B
:104850000D48008800F080000028F9D0204670BD87
:1048600010B540F225510848FDF70AFA48B140F268
:1048700025510548FDF72EFA0348FDF781F9034954
:10488000087010BD00080140003801403D0B0020B9
:104890002DE9FF5F07460D4693464FF000082E4670
:1048A000A9462C46AA4607B125B94FF0FF3004B0FF
:1048B000BDE8F09F4FF000085EE0781C10F808009B
:1048C000132853D2DFE800F02627285252292A2B3A
:1048D0002C525252522D3746330A1800B0685B49A9
:1048E0008860084681685AA002F094FD57490989FA
:1048F00088B2FFF726FE3AE0F0685449C8600846DF
:10490000C16859A002F086FD5049898988B2FFF735
:1049100020FE2CE02BE02AE029E028E027E026E03A
:1049200025E099F8001056A002F074FD1FE057A092
:1049300002F070FD1BE0A17962792379A068CDE9CE
:104940000032CDE90210E378A278218854A002F069
:1049500061FD0CE05DA002F05DFD61A002F05AFD7A
:104960009AF8001062A002F055FD00E000BF00BF01
:1049700008F1010000F0FF08387840459DDC002078
:1049800095E760480078314908605F4800784860E2
:10499000704710B510212D4802F080FB00202B49F4
:1049A000086048608860C86010BD58480068401CB6
:1049B000564908607047554800687047012080F3E9
:1049C000138800BF00BF5248006800F4E0605149FE
:1049D0000843001D4E490860BFF34F8F00BF00BF62
:1049E000FEE700B5FFF7E1FF00BD08B5002000902D
:1049F0000121684600F092F808BD70B505460E46E4
:104A000000240DB9601E70BD00241BE0295D4248E2
:104A1000FDF7B2F800BF40213F48FDF71BF9002821
:104A2000F9D0022C0DD3285DFF280AD155213A4830
:104A3000FDF7A2F800BF40213748FDF70BF9002829
:104A4000F9D0641CB442E1D33046DCE70410002006
:104A50004576743A4556454E545F636F6C646C6599
:104A6000642025640A0000004576743A4556454E98
:104A7000545F7761726D6C65642025640A000000E4
:104A8000525353492025640A000000005452414EFD
:104A900053504152454E545F44415441200A000056
:104AA000574946495F4E5450203A205B25642D25D6
:104AB000642D256420253032643A253032643A254D
:104AC0003032645D5B25645D200A00004D4F445523
:104AD0004C4520494E464F202E2E2E0A0000000045
:104AE000574946204D4F44554C45202E2E2E0A0046
:104AF0006D6F64756C6554797065203A205B256430
:104B00005D200A00FD0A0020FE0A0020400B002064
:104B10000CED00E00000FA050044004070B50446CA
:104B20000D46002624B9F3A002F074FC701E70BD7F
:104B30002A462146F74802F045FA0646AE4205D01D
:104B4000F5A002F067FC4FF0FF30F0E73046EEE7EB
:104B500010B504462CB9F7A002F05CFC4FF0FF3012
:104B600010BD002020606060FF2020706070002079
:104B7000F6E770B504460D462CB9F9A002F04AFCE0
:104B80004FF0FF3070BD3F21FB4802F087FA2A4604
:104B90002146F948801C02F068FAF7487C38A0F8F2
:104BA000B550012180F87D10FFF705FFF2497C39EF
:104BB000C1F8B7000020E5E702460021002001B956
:104BC00007E001F007030BB9C80802E0012303EB7B
:104BD000D10070472DE9FC4705460C4617464FF0BB
:104BE0000008C146002600200090019028788DF82A
:104BF00000000DB104B137B9E0A002F00BFC4FF09A
:104C0000FF30BDE8FC876846FFF7D6FF804608F115
:104C1000010006449DF80000C0F3800088B1112116
:104C20002278601C81542078401C2070A95D8DF88A
:104C30000310761C9DF803200021012001F0A2FF43
:104C4000B8609DF80000C0F3C00088B1122122783E
:104C5000601C81542078401C2070A95D8DF80410E0
:104C6000761C9DF804200021012001F08BFFF860E4
:104C70000020C6E72DE9F04104460D460026002736
:104C800004B135B9C8A002F0C5FB4FF0FF30BDE854
:104C9000F081FFF790FE0746A868A16888420ED011
:104CA000CBA002F0B7FBB4487C3890F80B0120F0A1
:104CB0000400001DB0497C3981F80B010126E86829
:104CC000E16888420ED0C8A002F0A4FBAA487C3854
:104CD00090F80B0120F008000830A7497C3981F8D2
:104CE0000B01012628682168884215D0C448006855
:104CF000381A41F2707188420ED3C2A002F08AFBCA
:104D00009D487C3890F80B0120F00100401C9A4926
:104D10007C3981F80B01012668686168884215D0EA
:104D2000B7480068381A41F2707188420ED3BAA0B1
:104D300002F070FB90487C3890F80B0120F00200E4
:104D4000801C8D497C3981F80B010126012E03D18D
:104D5000FFF731FEAA490860304698E72DE9FE4387
:104D600005460F4690464FF000090026002400201B
:104D70000090019080487C3890F80B018DF800007D
:104D8000641C05B137B9A9A002F044FB4FF0FF3015
:104D9000BDE8FE8316B94FF0000908E006F00700F1
:104DA00010B94FEAD60902E0012000EBD609B9F1AB
:104DB000010F04D90DEB0400494601F0C3FE4C4439
:104DC0006D487C3890F80B0100F0010060B12A6852
:104DD0000021012001F0CFFEC0B28DF808009DF83F
:104DE00008100DF80410641C63487C3890F80B011F
:104DF000C0F3400060B16A680021012001F0BBFEF1
:104E0000C0B28DF809009DF809100DF80410641C5B
:104E100059487C3890F80B01C0F3800060B1AA6853
:104E20000021012001F0A7FEC0B28DF80A009DF814
:104E30000A100DF80410641C4F487C3890F80B01E0
:104E4000C0F3C00060B1EA680021012001F093FEC8
:104E5000C0B28DF80B009DF80B100DF80410641C07
:104E600045487C38002180F80B11C8F8004069469D
:104E70003846D8F8002002F0F8F8002088E72DE93D
:104E8000F04780460C4617461D46089E94F8009051
:104E90000CB105B136B971A002F0BCFA4FF0FF3089
:104EA000BDE8F087B8F1000F20D1142132483F301F
:104EB00002F0F4F8B9F1050F19D0B9F1110F03D0D0
:104EC000B9F1120F14D1F3E070A002F0A3FA2A4A4C
:104ED0009C32A2F15D01601CFFF77CFE0120264997
:104EE0007C3908700025002030601FE11FE100E1DF
:104EF0001BE100004552523A2067697A50757444AC
:104F00006174612062756620697320656D707479C3
:104F1000200A0000A01100204552523A2046616943
:104F20006C656420746F2072625772697465200A20
:104F3000000000004552523A2067697A50726F743F
:104F40006F636F6C48656164496E69742068656160
:104F50006420697320656D707479200A0000000078
:104F60004552523A206461746120697320656D7006
:104F70007479200A000000009010002067697A44CC
:104F8000617461506F696E74324576656E74204548
:104F900072726F72202C20496C6C6567616C2050B6
:104FA0006172616D0A00000067697A436865636B2E
:104FB0005265706F7274204572726F72202C204996
:104FC0006C6C6567616C20506172616D0A00000055
:104FD00076616C7565636F6C646C656420436861B1
:104FE0006E6765640A00000076616C7565776172B2
:104FF0006D6C6564204368616E6765640A0000003B
:10500000440B002076616C756574656D7020436893
:10501000616E6765640A000076616C756568756D20
:1050200069204368616E6765640A000067697A44B5
:10503000617461506F696E7473325265706F72740F
:1050400044617461204572726F72202C20496C6C2F
:105050006567616C20506172616D0A0067697A5002
:10506000726F746F636F6C49737375656450726FA0
:1050700063657373204572726F72202C20496C6CCB
:105080006567616C20506172616D0A00414354494B
:105090004F4E5F454C4F4E474154455F434F4E5432
:1050A000524F4C5F444556494345200A00000000DA
:1050B000EDA002F0AFF9F548617880F80B1100F52A
:1050C0008A7200F5867100F59470FFF747FE60B9AB
:1050D000EE4800F58671D0F81421681C01F0C5FF78
:1050E000132028700620306002E04FF0FF30D7E632
:1050F0001CE07A1E611CE548383001F0B6FF781ECE
:10510000E24908671021E14890F8BB20BC30815487
:10511000BC3890F8BB00401CDC4981F8BB00032080
:10512000087000250020306000E000BF00BF0020B4
:10513000B6E62DE9F04F9DB006468B4617469946D8
:1051400000201C908246804600256C46BBF1000F73
:1051500006D1CFA002F05EF9681E1DB0BDE8F08F49
:10516000B9F1010F06D196F8088008F1060038441D
:1051700085B201E0781D85B22B4642463946CAA069
:1051800002F048F9FF2004F8010B04F8010B281283
:1051900004F8010B04F8015B3079401C04F8010BA2
:1051A000707904F8010B002004F8010B04F8019B4E
:1051B0004FF0080AB9F1010F0CD104F8018B0AF184
:1051C000010A0DEB0A00424606F1090101F04DFF0C
:1051D000C24444442FB10DEB0A003A46594601F04F
:1051E00044FF291D684601F0E1FA0146E81C0DF86C
:1051F0000010291D6846FFF700FC1C901C98002831
:1052000006DAB3A01C9902F005F96FF00100A4E7DB
:105210000020A2E72DE9F0438FB006460F469046E6
:105220004FF0000901AC08F1060085B23FB9AEA00D
:1052300002F0F0F84FF0FF300FB0BDE8F083FF2030
:1052400004F8010B04F8010B281204F8010B04F810
:10525000015B052004F8010B8C4890F87410406F36
:10526000401C8A4A506704F8011B002004F8010B17
:1052700004F8010B04F8016B424639460DF10D00AC
:1052800001F0F3FE291D01A801F090FA0146E81C87
:1052900001AA1154291D01A8FFF7AFFB8146B9F1FE
:1052A000000F06DA49469AA002F0B4F86FF0010048
:1052B000C2E7291D01A8FFF75CFC0020BCE770B520
:1052C0000546FFF778FB0446002698492846FFF775
:1052D000D1FC012817D196A002F09CF8934A143A09
:1052E000A2F108012846FFF739FD38B9674800F5F3
:1052F0008671D0F814211420FFF78CFF1022294664
:105300008A4801F0B2FE9048B4FBF0F100FB114076
:1053100018BB8E480068A0421FD08DA002F07AF81A
:10532000FF22012181481D3801F0B1FE7F4A143A65
:10533000A2F108012846FFF711FD38B9534800F5DE
:105340008671D0F814211420FFF764FF102229463B
:10535000764801F08AFE7D480460304602F0A6FAE5
:1053600070BD2DE9FE4F80460E4617464FF0000BEC
:105370000020029081468246002534460090B8F114
:10538000000F01D006B137B977A002F043F84FF013
:10539000FF30BDE8FE8F404601F098FD1FFA80FA0D
:1053A000BAF1000F02D14FF0FF30F2E74FF00009E1
:1053B0000BE1012201A9404601F0B3FD8346BBF198
:1053C000000F4ED074480078FF281FD19DF80400CC
:1053D000FF281BD17148007848B9FF202070607009
:1053E00002206F49088001206C490870E2E06C4897
:1053F0000088042809DD6A480088A84205D0FF20FB
:1054000020706070022066490880D3E0624800780E
:10541000FF2803D19DF80400552823D05F48007869
:1054200001281FD19DF804005D49098860545C483B
:105430000088401C5A49088008460088042811DD6D
:105440000094009C608801F0C4F9001D85B2372DDE
:1054500001D2042D07DC0020504908705049088013
:10546000A0E0B0E0A6E0A0E0414354494F4E5F45C4
:105470004C4F4E474154455F524541445F44455669
:105480005F535441545553200A000000141000206B
:105490005B4552525D202064617461204973204E47
:1054A000756C6C200A0000006C656E203D20256440
:1054B000202C20734469644C656E203D20256420B7
:1054C0002C646174615F6C656E203D2025640A0068
:1054D00075617274207772697465206572726F727B
:1054E000202564200A00000067697A5265706F7297
:1054F0007444617461204572726F72202C20496C73
:105500006C6567616C20506172616D0A000000007B
:105510004552523A20756172742077726974652021
:105520006572726F72202564200A00003C11002011
:105530006368616E6765642C207265706F72742099
:10554000646174610A000000C0270900480B002054
:10555000496E666F3A2036303053207265706F7234
:105560007420646174610A0067697A50726F746FA5
:10557000636F6C4765744F6E655061636B65742033
:105580004572726F72202C20496C6C6567616C20CB
:10559000506172616D0A0000500B00204C0B00201E
:1055A0004E0B0020E8A001F035FFF7480088A84224
:1055B00000D10DE09DF80400F4490870F44800782B
:1055C000401CF349087009F10109D145FFF6F1AE1D
:1055D00000BFED480088042822DDEB480088A8427F
:1055E0001ED1E9480188204601F0E0F80290E64823
:1055F0000088401E215C029881420AD13D80002033
:10560000E4490870E0490880E1490870DF49087002
:10561000BFE60020DF490870DB490880801EB8E63D
:105620000120B6E610B50024DB4890F87D0000B9F3
:1056300010BDDAA001F0EEFED748B0F8B5107E300C
:10564000FFF7DBF90446D448B0F8B500A04202D019
:10565000DAA001F0DFFEFFF7AEF9CF49C1F8B700DD
:1056600000BFE5E770B50446CB4D7E3534B9AFF2E7
:10567000107001F0CFFE4FF0FF3070BD2879401C54
:105680002179884204D13F21C3487C3001F006FDD6
:105690000020F2E73EB50446002524B9CDA001F074
:1056A000B9FE681E3EBD20680090606801909DF8BC
:1056B0000400401CC0B28DF80400052001F089F8F8
:1056C000ADF802000921684601F070F88DF8080075
:1056D00009216846FFF791F90546002D04DA2946AD
:1056E000AFF2D41001F096FE2846DBE710B5AA48C9
:1056F00090F87D00012827D1A74890F87C00022867
:105700001DDAFFF758F9A449D1F8B710401AC82894
:105710001AD9FFF750F904469F4890F87C30D0F82A
:10572000B7202146B6A001F075FEFFF77BFF9A482F
:1057300090F87C00401C984981F87C0004E03F21EF
:1057400095487C3001F0AAFC10BD30B59DB00446F0
:1057500000252CB9B4A001F05DFE681E1DB030BD5F
:105760006846FFF7F5F902208DF8040060798DF89E
:105770000500B9A103C9CDE90201BAA103C9CDE968
:105780000401BBA103C9CDE90801BCA103C9CDE94E
:1057900006012022BCA10AA801F067FC2022C3A1B7
:1057A0000DF1520001F061FC0020CDF84A00CDF867
:1057B0004E009DF851008DF851009DF8510040F0C9
:1057C00002018DF85110002001F003F8ADF84800F7
:1057D0006F2000F0FEFFADF802007321684600F074
:1057E000E5FF8DF8720073216846FFF706F905465C
:1057F000002D04DA2946AFF2E82001F00BFE28461E
:10580000ACE7FEB504460E46002524B9B0A001F071
:1058100001FE681EFEBD6846FFF79AF912208DF85A
:10582000040060798DF80500062000F0D2FFADF885
:1058300002008DF808600A21684600F0B7FF8DF875
:1058400009000A216846FFF7D8F80546002D04DA5A
:105850002946AFF2443001F0DDFD2846DAE770B5A5
:10586000044625462CB9A5A001F0D4FD4FF0FF3029
:1058700070BDA748A9680160A9898180A97B817151
:105880004548D5F80F10C0F844110146B1F83C0165
:1058900000F09FFF4049A1F83C01D1F8440100F01D
:1058A000A5FF3D49C1F844010E213B4890F8E32093
:1058B000E4308154E43890F8E300401C364981F824
:1058C000E300042008700020D2E710B5FFF773F85A
:1058D000044600BFFFF76FF8001BB0F5167FF9D93B
:1058E000FFF76CF810BD10B504462CB989A001F083
:1058F00091FD4FF0FF3010BD208900F06AFF20813C
:1059000090480078C0F38000217AC1F3800188427A
:1059100017D0207AC0F38000002813D0207A00F03E
:10592000010068B100211C4890F8CF20D03081548C
:10593000D03890F8CF00401C174981F8CF0003E120
:1059400005E119E119E100004552523A74686520F9
:1059500064617461206C656E67746820697320747B
:105960006F6F206C6F6E67206F7220746F6F207383
:105970006D616C6C2C2077696C6C206162616E6467
:105980006F6E200A000000004E0B0020500B00201C
:10599000510B00204C0B0020141000205761726E38
:1059A000696E673A2074696D656F75742C20726535
:1059B00073656E642064617461200A004552523A36
:1059C00020726573656E6420646174612065727213
:1059D0006F720A004552523A2067697A50726F74AA
:1059E0006F636F6C436F6D6D6F6E41636B206461AD
:1059F000746120697320656D707479200A0000005D
:105A00005761726E696E673A67697A50726F746F28
:105A1000636F6C526573656E6444617461202564C4
:105A20002025642025640A0067697A50726F746FBC
:105A3000636F6C476574446576696365496E666F2C
:105A4000204572726F72202C20496C6C6567616C06
:105A500020506172616D0A003030303030303034A7
:105A600000000000303030303030303200000000B4
:105A700030333033303030300000000030333031DC
:105A80003031303000000000373363363532316159
:105A90003436396634323139393031363763303162
:105AA00034353935643665370000000032306531F1
:105AB000396231626439653534653736616439611C
:105AC000643036616631616538383232000000007A
:105AD00067697A50726F746F636F6C4572726F7220
